:020000040800F2
:1000000038070020CD0100082104000891030008F2
:100010009503000875020008E70B000800000000C7
:10002000000000000000000000000000250500089E
:10003000790200080000000001050008F106000830
:10004000E7010008E7010008E7010008E7010008F0
:10005000E7010008E7010008E7010008E7010008E0
:10006000E7010008E7010008E7010008E7010008D0
:10007000E7010008E7010008E7010008E7010008C0
:10008000E7010008E7010008E7010008E7010008B0
:10009000E7010008E7010008E7010008E7010008A0
:1000A000E7010008E7010008E7010008E701000890
:1000B000E7010008E7010008E7010008E701000880
:1000C000E7010008E7010008E7010008E701000870
:1000D000E7010008010B0008E7010008E70100083C
:1000E000E7010008E7010008E7010008E701000850
:1000F000E7010008E7010008E7010008E701000840
:10010000E7010008E7010008E7010008E70100082F
:10011000E7010008E7010008E7010008E70100081F
:10012000E7010008E7010008E7010008E70100080F
:1001300000F002F800F03AF80AA090E8000C8244BF
:100140008344AAF10107DA4501D100F02FF8AFF29C
:10015000090EBAE80F0013F0010F18BFFB1A43F0A5
:10016000010318475C0C00007C0C0000103A24BF0F
:1001700078C878C1FAD8520724BF30C830C144BF0C
:1001800004680C607047000000230024002500264E
:10019000103A28BF78C1FBD8520728BF30C148BFEA
:1001A0000B6070471FB51FBD10B510BD00F033F8D0
:1001B0001146FFF7F7FF00F0AFFD00F051F803B470
:1001C000FFF7F2FF03BC00F010FD00000948804774
:1001D00009480047FEE7FEE7FEE7FEE7FEE7FEE729
:1001E000FEE7FEE7FEE7FEE704480549054A064B41
:1001F00070470000F50600083101000838010020B2
:10020000380700203803002038030020704770476B
:10021000704770477047754600F028F8AE460500F5
:100220006946534620F00700854618B020B5FFF711
:10023000DBFFBDE820404FF000064FF000074FF015
:1002400000084FF0000B21F00701AC46ACE8C009F4
:10025000ACE8C009ACE8C009ACE8C0098D467047FD
:100260000446AFF300802046FFF7A9FF004870471F
:10027000D400002000BFFEE770472DE9F0410246A0
:1002800000250026002000230024002791F803C049
:100290000CF00F0591F803C00CF0100CBCF1000F2E
:1002A00003D091F802C04CEA050591F800C0BCF1FA
:1002B000000F31D0146800202BE04FF0010C0CFA35
:1002C00000F3B1F800C00CEA03069E4220D183007F
:1002D0004FF00F0C0CFA03F7BC4305FA03FC4CEA91
:1002E000040491F803C0BCF1280F06D14FF0010CB3
:1002F0000CFA00FCC2F814C00AE091F803C0BCF18B
:10030000480F05D14FF0010C0CFA00FCC2F810C0E8
:10031000401C0828D1D31460B1F800C0BCF1FF0F15
:1003200034DD546800202EE000F1080C4FF0010885
:1003300008FA0CF3B1F800C00CEA03069E4221D182
:1003400083004FF00F0C0CFA03F7BC4305FA03FCD3
:100350004CEA040491F803C0BCF1280F05D100F168
:10036000080C08FA0CF8C2F8148091F803C0BCF12C
:10037000480F07D100F1080C4FF0010808FA0CF8FB
:10038000C2F81080401C0828CED35460BDE8F0812C
:1003900000BFFEE700BFFEE738B504460D46012169
:1003A000082000F0AFF80121202000F0ABF8012177
:1003B000402000F0A7F80121080200F0A3F84FF454
:1003C0000070ADF8000010208DF8030003208DF8B8
:1003D000020069460E48FFF750FFA020ADF800006C
:1003E00069460C48FFF749FF4220ADF80000694616
:1003F0000948FFF742FF4FF42840ADF80000694676
:100400000648FFF73AFF2946204600F015F838BDA8
:10041000000C014000140140001801400020014080
:100420007047000002490143024A11607047000012
:100430000000FA050CED00E030B589B005460C4629
:100440000121480300F05EF80121102000F05AF865
:1004500018208DF8230003208DF822004FF47070CF
:10046000ADF8200008A92448FFF707FFADF81850A1
:10047000ADF814400020ADF81A00ADF8160005A93B
:100480001E4800F0EBFA6020ADF804000120ADF842
:1004900006000020ADF80A00ADF80C0001A91748CD
:1004A00000F080F901A9154800F0D2F901A913481C
:1004B00000F02EFA01A9114800F084FA01210F483A
:1004C00000F060F908210D4800F0B8F908210B4848
:1004D00000F010FA0821094800F06AFA08210748DC
:1004E00000F0AEFA0121054800F034F9012103487B
:1004F00000F03CF909B030BD00100140003401406B
:100500007047000029B1064A92690243044B9A6180
:1005100004E0034A92698243014B9A6170470000EC
:1005200000100240704710B500F002F810BD000046
:100530000CB50020019000903348006840F48030F2
:100540003149086000BF3048006800F40030009076
:100550000198401C0190009818B90198B0F5A06F5F
:10056000F1D12948006800F4003010B1012000905A
:1005700001E0002000900098012843D12348006842
:1005800040F01000214908600846006820F0030090
:1005900008600846006840F0020008601A48406899
:1005A000194948600846406848600846406840F479
:1005B000806048600846406820F47C104860084627
:1005C000406840F4E81048600846006840F08070D9
:1005D000086000BF0C48006800F000700028F9D0E7
:1005E0000948406820F00300074948600846406811
:1005F00040F00200486000BF0348406800F00C0073
:100600000828F9D10CBD0000001002400020024073
:1006100030B504460D46002C07DD00202C4908604B
:1006200001202C49C1F8B40106E0012028490860E6
:1006300000202849C1F8B401204600F0B9FB264942
:100640000880002D07DD012024490860002024498E
:10065000C1F8840106E000202049086001202049FB
:10066000C1F88401204600F0A3FB1B49083908802B
:10067000002A07DD00201B49086001201549C1F848
:10068000AC0106E001201749086000201149C1F8BB
:10069000AC01204600F08CFB0F490C390880002B80
:1006A00007DD01201049086000201049C1F89C01B5
:1006B00006E000200C49086001200C49C1F89C01AB
:1006C000204600F075FB0449091F088030BD00007A
:1006D000BC012442000024424034014098012342DE
:1006E00000002342A48121429481224200802242C0
:1006F0007047000010B51348006840F00100114930
:10070000086008464068104908400E49486008469D
:1007100000680E4908400B4908600846006820F44C
:10072000802008600846406820F4FE0048604FF4CE
:100730001F008860FFF7F7FE4FF000600449086073
:1007400010BD0000001002400000FFF8FFFFF6FEA1
:1007500008ED00E021B1028842F08002028004E04E
:1007600002884FF67F731A400280704721B10288D9
:1007700042F00102028004E002884FF6FE731A4044
:100780000280704731B1B0F8442042F40042A0F832
:10079000442005E0B0F84420C2F30E02A0F8442043
:1007A0007047000070B5002400220023058C4FF62E
:1007B000FE7635400584028C8388048B4FF68F7556
:1007C0002C40B51E2C400D882C43751E2A400D89E7
:1007D0002A434D882A43144DA8420BD0134DA842FA
:1007E00008D0134DA84205D0124DA84202D0124D98
:1007F000A84213D14FF6F7752A404D892A434FF688
:10080000FB752A408D882A434FF6FF652B404FF633
:10081000FF552B408D892B43CD892B438380048347
:10082000CD888586028470BD002C014000340140D3
:100830000040014000440140004801400A460021B8
:10084000018B4FF6F7731940114301837047000085
:1008500070B5002400220023058C4FF6EF7635405A
:100860000584028C8388048B48F6FF752C404FF674
:10087000FF452C400D884FF6FF7606EA05252C43F0
:100880004FF6DF752A400D8906EA05152A434D8883
:1008900006EA05152A43154DA84202D0144DA84278
:1008A0001DD14FF67F752A404D894FF6FF7606EA37
:1008B00005152A434FF6BF752A408D8806EA0515AF
:1008C0002A434FF6FF352B404FF2FF752B408D89A1
:1008D00006EA85052B43CD8906EA85052B438380EF
:1008E0000483CD880587028470BD0000002C014080
:1008F000003401400A460021018B4FF2FF7319407A
:100900004FF6FF7303EA0223194301837047000087
:1009100070B5002400220023058C4FF6FF66354099
:100920000584028C8388848B4FF68F752C404FF69C
:10093000FC752C400D882C434FF6FF552A400D893D
:100940004FF6FF7606EA05252A434D8806EA052577
:100950002A43154DA84202D0144DA8421DD14FF292
:10096000FF752A404D894FF6FF7606EA05252A4392
:100970004FF6FF352A408D8806EA05252A434EF6B4
:10098000FF752B404DF6FF752B408D8906EA051546
:100990002B43CD8906EA05152B4383808483CD88BC
:1009A0008587028470BD0000002C014000340140A6
:1009B0000A460021818B4FF6F7731940114381835A
:1009C0007047000070B5002200230024058C4EF60D
:1009D000FF7635400584038C8488828B48F6FF754A
:1009E0002A404FF6FF452A400D884FF6FF7606EA6B
:1009F00005252A434DF6FF752B400D8906EA05357E
:100A00002B434D8806EA05352B430B4DA84202D0F7
:100A10000A4DA84208D14BF6FF752C408D894FF640
:100A2000FF7606EA85152C4384808283CD88A0F862
:100A30004050038470BD0000002C01400034014090
:100A40000A460021818B4FF2FF7319404FF6FF7366
:100A500003EA0223194381837047000000220288C1
:100A60001D4B98420ED01D4B98420BD0B0F1804FD9
:100A700008D01B4B984205D01A4B984202D01A4B13
:100A8000984204D14FF68F731A404B881A43174B84
:100A9000984207D0164B984204D04FF6FF431A40B5
:100AA000CB881A4302808B8883850B8803850A4B89
:100AB00098420BD0094B984208D00E4B984205D073
:100AC0000D4B984202D00D4B984201D10B7A038610
:100AD0000123838270470000002C01400034014054
:100AE0000004004000080040000C004000100040DE
:100AF0000014004000400140004401400048014013
:100B000010B540F225511D4800F03EF810B31B48C7
:100B100000F064F8C4B21A48008800F40040C8B974
:100B20001748008800F4804060B10A2C03D00020F0
:100B30001349088020E01248008840F40040104922
:100B4000088019E00D2C06D10D48008840F4804043
:100B50000B49088010E00A480088C0F30D000949DD
:100B60000C5407480088401C054908800846008846
:100B7000C72801DD0020088010BD000000380140BA
:100B8000080000200C00002070B50246002400235D
:100B90000025002040F66A16B14200D100BFC1F323
:100BA000421501F01F03012606FA03F3012D02D1BD
:100BB0009689334006E0022D02D1168A334001E0C7
:100BC000968A33400C12012606FA04F41688344043
:100BD00013B10CB1012000E0002070BD01468888EF
:100BE000C0F30800704700BFFEE700BF7047000079
:100BF000002032490861C8601420486100208861E3
:100C0000C8610846006840F0010008600846406876
:100C10002B4908402949486008460068294908408E
:100C2000264908600846006820F4802008600846CD
:100C3000406820F4FE00486000208860C803224914
:100C400008601E48006840F480301C49086000BFFE
:100C50001A480068400C0028FAD04FF48060174909
:100C600048600846406840F4E01048600846406824
:100C700040F4803048600846006840F080700860AA
:100C800000BF0E480068400E0028FAD00B484068AC
:100C900040F002000949486000BF0848406800F081
:100CA0000C000828F9D142F227304FF0E0214861CA
:100CB0000846006940F003000861704700100240D8
:100CC0000000FFF8FFFFF6FE08ED00E00146114AC4
:100CD00012884A434FF0E0235A6100229A611A4673
:100CE000126942F001021A6100BF4FF0E022106960
:100CF00000F001021AB100F48032002AF5D04FF062
:100D0000E022126922F001024FF0E0231A61002272
:100D10009A61704702000020FFF76AFF4FF4A0605D
:100D2000FFF780FB002141F61F40FFF735FB3CE059
:100D300041F288331A4619461846FFF769FC41F21A
:100D40008830FFF7C3FF00231A4619461846FFF7FD
:100D50005FFC4FF4FA70FFF7B9FF4FF4FA70FFF73A
:100D6000B5FF4FF4FA70FFF7B1FF4FF4FA70FFF7D9
:100D7000ADFF4FF4FA70FFF7A9FF4FF4FA70FFF7D9
:100D8000A5FF0A4B1A4619461846FFF741FC4FF4D7
:100D9000FA70FFF79BFF054B5A4219461046FFF7C2
:100DA00037FC4FF4FA70FFF791FFC1E778ECFFFFD3
:100DB0000146002901DA484200E008467047000079
:100DC000E00D0008000000200C0000006C0100088D
:100DD000EC0D00080C0000202C0700008801000822
:0C0DE00000000000000000000000000007
:04000005080001CD21
:00000001FF
