:020000040800F2
:10000000583B0020E9010008511A00085517000864
:100010004D1A0008BB130008272600080000000046
:10002000000000000000000000000000D5200008D3
:100030003D16000800000000471F0008C12100080D
:10004000030200080302000803020008030200087C
:10005000030200080302000803020008030200086C
:10006000030200080302000803020008030200085C
:10007000030200080302000803020008030200084C
:10008000C11300080302000803020008030200086D
:10009000030200080302000803020008030200082C
:1000A000030200080302000803020008030200081C
:1000B00025220008030200080302000803020008CA
:1000C00003020008030200080302000803020008FC
:1000D0000302000803020008E523000803020008E9
:1000E00003020008030200080302000800F002F8FF
:1000F00000F06BF80AA090E8000C82448344AAF157
:100100000107DA4501D100F060F8AFF2090EBAE854
:100110000F0013F0010F18BFFB1A43F0010318473B
:10012000743200009432000010F8013B0A4413F0CE
:10013000030408BF10F8014B1D1108BF10F8015B44
:10014000641E05D010F8016B641E01F8016BF9D133
:10015000002D15D010F8014B03F00C030C2BA1EB74
:1001600004040ABF10F8013BA4EB8314A4EB03249E
:1001700005F1010314F8016B5B1E01F8016BF9D561
:10018000914238BF10F8013BD1D3704700230024BF
:1001900000250026103A28BF78C1FBD8520728BF97
:1001A00030C148BF0B607047662903F07A80002099
:1001B00070471FB500F0D0FA04000020002102F0C3
:1001C00047FCE0601FBD10B510BD00F0DDFB11461F
:1001D000FFF7EFFF02F07AFA00F0FBFB03B4FFF742
:1001E000F2FF03BC02F03CFA094880470948004787
:1001F000FEE7FEE7FEE7FEE7FEE7FEE7FEE7FEE7D7
:10020000FEE7FEE704480549054A064B7047000033
:10021000C5210008ED00000858350020583B00209B
:100220005837002058370020704700000FB40449A9
:1002300010B503AA029800F07DFA10BC5DF814FB1B
:10024000CC1700202DE9F0410E4604460020206224
:100250002046E168884730B3252805D0D4E901213C
:100260009047206A401CF2E7E16820460027884753
:10027000050018D0A5F14100192802D820354FF407
:1002800000673246294620462760FFF78DFF40B1C0
:10029000012804D0F61D26F007060836D8E7361DDB
:1002A000D6E72846DAE7206ABDE8F08110B5203AA3
:1002B000C0F00B80B1E81850203AA0E81850B1E81F
:1002C0001850A0E81850BFF4F5AF5FEA027C24BFD5
:1002D000B1E81850A0E8185044BF18C918C0BDE8CC
:1002E00010405FEA827C24BF51F8043B40F8043B95
:1002F00008BF7047D20728BF31F8023B48BF11F84A
:10030000012B28BF20F8023B48BF00F8012B7047A3
:10031000704770477047704770472DE9FF4F0C4694
:100320001E464FF0FF378BB0D2E90001DDF8608048
:100330000A908A46C1F30A5505B93D460021084690
:100340004FF00000BAF1000F00F4400005DA00EBB6
:1003500080004FF4400101EA50004FEA9059B9F192
:10036000010F00DDB9460A9850EA4A000ED044F663
:100370001050A5F2FF3545432F14B8F1000F1ED0E1
:100380007542291E1EDDC9F100021CE0B8F1010F03
:100390004FF0000001D0302103E0F24305E021548A
:1003A000401CB042FBDB30460022002121540B9957
:1003B000C1F80880C1E900200FB0BDE8F08FBD1B77
:1003C0006D1CDEE74A4600DA694206A800F066FACC
:1003D00006AB93E8070003AB83E8070050460A9991
:1003E00000F03EFB8DE80700A0F500501F3800909C
:1003F0000398002D09DD42F21F014A46084403A973
:100400000390684600F09DFD08E0A0F500504A46C4
:100410001F3803A90390684600F0A7FD8DE8070088
:100420000004000C03D04FF0FF30410800E01046FC
:10043000B8F1000F03D00022009215461EE0751E91
:1004400005D400F08DF9303262556D1EF9D5B346F2
:100450000122084302D000227F1C04E020783028CB
:1004600001D100227F1E002A099786D01DE0112DA0
:1004700007DA00F075F9303262556D1C50EA01025E
:10048000F5D1084302D00098C8B10EE00021681EE3
:1004900005E0235C625C63542254401E491C814287
:1004A000F7DBAB46A81B401E0990002004F80B00A8
:1004B0000B98099AC0F80880C0E9002B7CE7112648
:1004C0004FF0000859E72DE9F04F88460446D21D49
:1004D00022F0070191B0D1E90001CDE90A0102F053
:1004E000ABF802460B98C00F01D02D2007E0206822
:1004F000810701D52B2002E0202101EAC000032A58
:10050000099001D0072A05DB03464146204600F04A
:1005100085F90BE12078800601D5E06900E006202E
:10052000B8F1650F814606D0B8F1660F18D0B8F162
:10053000670F70D131E00020B9F1110F009001DB9D
:10054000112301E009F101030AAA01A90CA8FFF790
:10055000E4FEDDE90C70002609F10105834647E061
:1005600001204B4600904FF000470AAA01A90CA8B1
:10057000FFF7D3FEDDE90DB00C995D46002610B9FA
:1005800009F101000D18B9EB050003D4C0F1FF36E5
:1005900009F10105A5EB09002BE0B9F1010F01DA22
:1005A0004FF001090020B9F1110F0090484601DD1C
:1005B000112300E003460AAA01A90CA8FFF7ADFE2B
:1005C000DDE90C704D4600268346207800070AD4EA
:1005D000AB4500DA5D4601A8012D04DD411911F893
:1005E000011C302907D04F4502DA17F1040F04DA55
:1005F000012082460FE06D1EEEE7002F02DCED1BAE
:100600003E4403E0781CA84200DD7D1CB81B00F1CD
:10061000010A4FF000472078000703D4AA4501DB08
:100620004FF0FF3A0021B7F1004F0DF143088DF86C
:10063000431024D002202B23002F01DA7F422D23E8
:100640000A21021EA0F1010000DC5FB197FBF1FC62
:1006500097FBF1F201FB1C7C17460CF1300C08F8FB
:1006600001CDEEE7A8F1010003702188090501D54D
:10067000452100E06521A0F1010800F8011C09985E
:100680000FA9A1EB0807FF1D00B10120411901EBE3
:10069000EA70A1693844081A401EA0612078C0069B
:1006A00002D42046AFF30080099828B1D4E9012193
:1006B0009047206A401C20622078C00622D5204640
:1006C000AFF300801EE0002E04DBB34502DD01A87D
:1006D000805D00E03020D4E901219047206A401C71
:1006E0002062761CAAF101005FEA000A0AD100F03C
:1006F00033F8C0680168405CD4E901219047206A62
:10070000401C2062281EA5F10105DCDC07E0D4E9CD
:10071000012118F8010B9047206A401C2062381E06
:10072000A7F10107F3DC2046AFF30080032011B0EE
:1007300043E60000074B70B50D467B4400F05BF8C4
:100740000446284600F018F910B14FF0FF3070BD94
:10075000204670BD731F0000004870471835002008
:1007600030B5B0F10A024FEA900E71F100034EEA83
:10077000817EB0EB0E0061EB91014FEA101E4EEA54
:10078000017E10EB0E0041EB11114FEA102E4EEAE4
:10079000016E10EB0E0041EB11214FEA104E4EEAB4
:1007A000014E10EB0E0041EB1141401841F10001E8
:1007B0004FEAD00040EA41704FEAD10110EB8005CA
:1007C0004FEA810444EA907444EB01046D1944EB50
:1007D0000404521BA3414FF0000348BF0A3200D566
:1007E00030BD401C41F1000130BD000001694A1CD0
:1007F00002610878704700B58FB0CDE90131002162
:10080000059105497944CDE9031011466846FFF783
:1008100019FD0FB000BD0000E5FFFFFF2DE9F0411D
:100820001F46044603260168072A01F4006004DB22
:1008300008B116A505E016A503E008B115A500E06E
:1008400015A521F010002060A069C01EA0610FB1A5
:10085000401EA0612046AFF300804FB1D4E90121D2
:1008600038469047206A401C2062C01C206206E087
:10087000206AFAE7D4E9012115F8010B9047761EAA
:10088000F8D22046AFF30080BDE8F0814E414E0023
:100890006E616E00494E4600696E66002DE9F047B4
:1008A000814616468AB0334878440DC88DE80D005D
:1008B00030487844801C03AC0DC884E80D0041F634
:1008C0009B300844372190FBF1F290FBF1F5A5F144
:1008D000800501FB12041B3C02D56442012000E0AC
:1008E0000020DFF890A080460027FA44AAF1BE0A53
:1008F0000DE0E00709D03246684607EB47010AEBF6
:10090000810100F032FB8DE8070064107F1C002C91
:10091000EFD1184F7F44AC3F18E0E80714D007EB45
:1009200004100DF1180A90E80E008AE80E00C06865
:10093000F04201D198190890324606A903A800F0A8
:1009400014FB03AB83E807006D10641C002DE4D199
:1009500032466946B8F1000F03A802D000F0F1FA60
:1009600001E000F002FBC9E90001C9F808200AB063
:10097000BDE8F087782A0000007B00F08000704717
:1009800000487047F83400207546FFF7F9FFAE467F
:1009900005006946534620F00700854618B020B58B
:1009A000FFF730FCBDE820404FF000064FF0000795
:1009B0004FF000084FF0000B21F00701AC46ACE807
:1009C000C009ACE8C009ACE8C009ACE8C0098D4674
:1009D00070470446AFF300802046FFF7FFFB00009E
:1009E0004FF0013C50F8042B51F8043B9A4221D1BE
:1009F000A2EB0C03934313EACC1317D150F8042B4A
:100A000051F8043B9A4215D1A2EB0C03934313EA2D
:100A1000CC130BD150F8042B51F8043B9A4209D166
:100A2000A2EB0C03934313EACC13DBD04FF000008E
:100A3000704700BFD01A01BAB1FA81F101F0180174
:100A400022FA01F0CB40C1F12001DBB2C0B2C01AE2
:100A50002CFA01F3D11A914311EAC311E6D1704780
:100A60005FEA400C08BF91F0000F4FEA8C234FEA79
:100A7000C12243EA51514FEA1C5018BF00F5F04023
:100A80004FEA300018BF41F000415FEA6C5C00F0B3
:100A90002980BCF1FF3F08BF40F080407047130C35
:100AA00006BF12044FF0100C4FF0000C130E04BFE1
:100AB00012020CF1080C130F04BF12010CF1040C0C
:100AC000930F04BF92000CF1020CD30F04BF52002D
:100AD0000CF1010C11464FF00002A0F11F00A0EB39
:100AE0000C00704711F0004F08BF704731F0004113
:100AF0003FF4D5AF0B0C06BF09044FF0100C4FF0BC
:100B0000000C0B0E04BF09020CF1080C0B0F04BF04
:100B100009010CF1040C8B0F04BF89000CF1020CCD
:100B2000CB0F04BF49000CF1010CCCF12003A0EB6A
:100B30000C0022FA03F302FA0CF241EA030100F17D
:100B40000100704720F07F4C80EA030023F07F47CC
:100B5000ACEB070303F57C5300F0004003F1FF0307
:100B60002DE980494FEA154B09B44FEA144325EAB1
:100B70000B4E24EA03480FF2042606EB132749081C
:100B80003E785FEA320203FB0667C7F5000707FB02
:100B900006F64FEA54374FEAD64606F1020607FB3F
:100BA000066CCCF1005C4FEA1C472CEA074C07FBB3
:100BB00006F40CFB06F504EB15464FEA961634BF17
:100BC00000204FF000404FEAD13706FB07FC4FEA08
:100BD0001C4C0CFB0BF7D21B03FB0CF761EB070162
:100BE0000CFB0EF7B0EB074072EB17420CFB08F75B
:100BF00034BFA2EB0742B2EB074261EB17414FEA69
:100C00000C444FEA910706FB07FC4FEA1C4C0CFB17
:100C10000BF7B0EBC74072EB573203FB0CF734BF56
:100C2000A2EBC742B2EBC74261EB57310CFB0EF7A8
:100C3000B0EBC70072EB57720CFB08F734BFA2EBA6
:100C4000C702B2EBC70261EB5771039F4FEA8161A4
:100C500041EA921104EBCC044FEAD1374FEA8262A9
:100C600006FB07FC42EA90124FEA80604FEA1C4CF8
:100C70000CFB0BF7D21B03FB0CF761EB07010CFB22
:100C80000EF7B0EB074072EB17420CFB08F734BFCE
:100C9000A2EB0742B2EB074261EB17414FEA8C55DA
:100CA0004FEA910704EB9C2406FB07FC4FEA1C4C1F
:100CB0000CFB0BF7B0EBC74072EB573203FB0CF7A2
:100CC00034BFA2EBC742B2EBC74261EB57310CFB1A
:100CD0000EF7B0EBC70072EB57720CFB08F734BF8E
:100CE000A2EBC702B2EBC70261EB577115EB4C25C3
:100CF0004FEA816141EA92114FEA82624FEAD137AD
:100D000042EA901206FB07FC44F100044FEA8060BF
:100D10004FEA1C4C0CFB0BF7D21B03FB0CF761EBEF
:100D200007010CFB0EF7B0EB074072EB17420CFB10
:100D300008F734BFA2EB0742B2EB074261EB174161
:100D400015EB1C154FEA813141EA92414FEA82329C
:100D500042EA90424FEA80304FEA0C7644F10004B8
:100D600048EA03434EEA0B484FF0000EB2EB080C82
:100D700071EB030724BF624639464EEB0E0E4FF06F
:100D8000000B0018524149414BEB0B0BB2EB080C26
:100D900071EB03077BF1000B24BF624639464EEB33
:100DA0000E0E4FF0000B0018524149414BEB0B0B5C
:100DB000B2EB080C71EB03077BF1000B24BF62461A
:100DC00039464EEB0E0E51EA020718BF46F00106F7
:100DD00016EB0E7655F1000254F1000103D5BDE883
:100DE0008901BDE80088BDE88901BDE80048B61961
:100DF000524141EB0101A3F10103704780807F7EE6
:100E00007D7C7B7A79787776767574737271717080
:100E10006F6E6E6D6C6C6B6A6A6968686766666532
:100E20006464636362616160605F5F5E5E5D5D5CC0
:100E30005C5B5B5A5A595958585757565655555531
:100E40005454535352525251515050504F4F4F4E91
:100E50004E4D4D4D4C4C4C4B4B4B4A4A4A494949DF
:100E60004848484747474746464645454544444421
:100E7000444343434342424242414141002B26D432
:100E8000770021D01CB54FEA370703B44FF01000AC
:100E90004FF010014FF000000FBCBDE810400BF107
:100EA000010BBBF1010F08BF5FEA170722BF12F168
:100EB000010211F101014FF0004143F1000300F084
:100EC000004043EA00007047F9D35708DAE746EAE2
:100ED000064613F1400F4FEA16461FDD13F1200FAF
:100EE000DFBF16430A46002120335B42C8D0C3F15E
:100EF000200746EA064602FA07F74FEA164646EA90
:100F00000706C3F1200722FA03F201FA07F721FAD4
:100F100003F14FF0000342EA0702B1E746EA020696
:100F200046EA06464FEA164646EA0106BCBF46EACE
:100F30000646360C4FF000034FF000024FF0000160
:100F40009EE72DE9C048934630B491E8380007C8C1
:100F500031EA400C48BF34EA430C03D5FFF7F2FDF9
:100F6000FFF78CFFF0BCBDE800882DE9C048934630
:100F700030B491E8380007C810F0804F08BF13F074
:100F8000804F03D100F005F8FFF778FFF0BCBDE813
:100F9000008820F07F4780EA030023F07F4C07EBB6
:100FA0000C03A3F57C5300F00040A3F1FE0392F084
:100FB000000F00F0B38095F0000F00F077802DE96E
:100FC00001494FEA11404FEA144621EA004800FB6C
:100FD00006FC24EA064708FB06F607FB08F800FBB8
:100FE00007F718EB06484CEB164C4FEA124B18EB80
:100FF00007484FEA15464CEB174022EA0B4E0BFB15
:1010000006FC25EA06470EFB06F607FB0EFE0BFB69
:1010100007F71EEB064E4CEB164C4FF000061EEB8E
:10102000074E4CEB174B18EB0B0840F1000018EB88
:101030000E0B58EB000840F100008F1A4FF0000132
:101040003CBFC943661B14BFB5EB040C00213CBF79
:10105000C943F61B4FEA17444EEA8E0E27EA0445B1
:101060004FEA1C4704FB07622CEA074C05FB07F715
:101070000CFB05F604FB0CFC16EB074642EB174293
:1010800016EB0C4642EB1C421BEB060658EB020229
:10109000414146EA9E0601D5BDE80189B619524193
:1010A00041EB0101A3F10103BDE801894FEA1445B9
:1010B0004FEA114724EA054621EA074C05FB07F4ED
:1010C00006FB07F70CFB06F105FB0CFC11EB0741D7
:1010D00044EB17444FEA124711EB0C4144EB1C441C
:1010E00022EA074C05FB07F206FB07F70CFB06F6A6
:1010F00005FB0CFC16EB074642EB174216EB0C46C1
:1011000042EB1C456A1854F1000148BF7047B619FC
:10111000524141EB0101A3F10103704795F0000F2B
:1011200037D04FEA11424FEA144721EA024624EA37
:10113000074C02FB07F106FB07F70CFB06F402FB6A
:101140000CFC14EB074441EB17414FEA154714EB35
:101150000C4441EB1C4125EA074C02FB07F506FB5A
:1011600007F70CFB06F602FB0CFC16EB074645EBFB
:10117000174516EB0C4645EB1C42121951F10001C4
:1011800048BF7047B619524141EB0101A3F1010379
:1011900070474FEA14454FEA114724EA054621EA11
:1011A000074C05FB07F106FB07F70CFB06F24FF0B7
:1011B000000605FB0CFC12EB074241EB174112EB5A
:1011C0000C4251EB1C4148BF7047921841EB0101A2
:1011D000A3F10103704721B1826842F001028260ED
:1011E00003E0826822F001028260704721B18268C8
:1011F00042F48072826003E0826822F4807282602E
:101200007047000010B504461248844208D10121FD
:10121000401500F0E5FE0021601500F0E1FE17E04A
:101220000D48844208D10121001500F0D9FE0021AB
:10123000201500F0D5FE0BE00848844208D10121BA
:10124000C80300F0CDFE00214FF4004000F0C8FEBE
:1012500010BD00000024014000280140003C014076
:10126000014600208A6802F004020AB1012000E071
:1012700000207047014600208A6802F008020AB187
:10128000012000E00020704730B502460020002316
:1012900050680F4C20400D790C6844EA0524204327
:1012A000506090680B4C2040D1E902542C434D799A
:1012B00044EA450420439060D06A20F470000C7C1E
:1012C000641EE4B2234340EA0350D06230BD000004
:1012D000FFFEF0FFFDF7F1FFF0B504460D460020DC
:1012E0000021092D11DDE068A5F10A0606EB46078D
:1012F000072606FA07F18843A5F10A0606EB46061B
:1013000003FA06F10843E0600CE0206905EB4507AD
:10131000072606FA07F1884305EB450603FA06F1AE
:1013200008432061072A0FDA606B561E06EB86071A
:101330001F2606FA07F18843561E06EB860605FAB5
:1013400006F10843606322E00D2A0FDA206BD61FF6
:1013500006EB86071F2606FA07F18843D61F06EB21
:10136000860605FA06F10843206310E0E06AA2F160
:101370000D0606EB86071F2606FA07F18843A2F141
:101380000D0606EB860605FA06F10843E062F0BD9D
:10139000816841F008018160704721B1826842F4A0
:1013A000A002826003E0826822F4A002826070479B
:1013B000816841F004018160704700BFFEE70000D2
:1013C00010B54FF4001000F005F960B14FF40010B3
:1013D00000F010F80121044800F01EFA0020034933
:1013E00008700349087010BD00540040A82F002069
:1013F000A92F002000F0805111B10349086001E0DD
:1014000002494860704700000404024000000240A6
:1014100021B1026842F00102026004E002684FF666
:10142000FE731A400260704700B58BB00121084678
:1014300000F096FD114800F027F81148009011487F
:10144000019000200290142003900020049080203E
:1014500005908000069080000790202008900002F0
:10146000099000200A906946044800F0C9F801215B
:101470000248FFF7CDFF0BB000BD0000080002409E
:101480004C2401407430002001684FF6FE72114078
:1014900001600021016041608160C1604B49884268
:1014A00008D14A490839496841F00F01474A083ACA
:1014B00051608AE045491431884208D143490839CE
:1014C000496841F0F001414A083A51607DE03F49E6
:1014D0002831884208D13D490839496841F4706192
:1014E0003A4A083A516070E038493C31884208D1A4
:1014F00036490839496841F47041344A083A516024
:1015000063E032495031884208D13049083949688E
:1015100041F470212D4A083A516056E02B4964315C
:10152000884208D129490839496841F47001274A9D
:10153000083A516049E025497831884208D1234969
:101540000839496841F07061204A083A51603CE02E
:101550001F49884206D1011F096841F00F01021F8F
:10156000116032E01A491431884208D11849091F24
:10157000096841F0F001164A121F116025E0144974
:101580002831884208D11249091F096841F4706165
:101590000F4A121F116018E00D493C31884208D1F2
:1015A0000B49091F096841F47041094A121F116073
:1015B0000BE007495031884207D10549091F0968E6
:1015C00041F47021024A121F116070470800024066
:1015D0000804024001460020002201F0805313B1AC
:1015E000054B1A6801E0054B1A6802EA01030BB1CA
:1015F000012000E00020704700040240000002408B
:1016000010B50022026847F6F0739A430C6A8B68A3
:1016100023430C6923434C6923438C692343CC69DE
:1016200023434C6A23438C6A23431A430260CB68EA
:1016300043600B6883604B68C36010BD70472DE941
:10164000F041024600250026002000230024002748
:1016500091F803C00CF00F0591F803C00CF0100CCA
:10166000BCF1000F03D091F802C04CEA050591F8D7
:1016700000C0BCF1000F31D0146800202BE04FF007
:10168000010C0CFA00F3B1F800C00CEA03069E420C
:1016900020D183004FF00F0C0CFA03F7BC4305FA7E
:1016A00003FC4CEA040491F803C0BCF1280F06D1F6
:1016B0004FF0010C0CFA00FCC2F814C00AE091F8DB
:1016C00003C0BCF1480F05D14FF0010C0CFA00FC2F
:1016D000C2F810C0401C0828D1D31460B1F800C073
:1016E000BCF1FF0F34DD546800202EE000F1080C3F
:1016F0004FF0010808FA0CF3B1F800C00CEA030639
:101700009E4221D183004FF00F0C0CFA03F7BC432B
:1017100005FA03FC4CEA040491F803C0BCF1280F5D
:1017200005D100F1080C08FA0CF8C2F8148091F801
:1017300003C0BCF1480F07D100F1080C4FF00108BD
:1017400008FA0CF8C2F81080401C0828CED3546068
:10175000BDE8F08100BFFEE770B502460024002519
:1017600000230020958A138B1B0445EA030626F00C
:101770007F4404EA01068E4201D1012000E00020EE
:1017800070BD21B1028842F00102028004E00288AB
:101790004FF6FE731A4002807047000010B50446F1
:1017A0000B48844209D10121480500F0F9FB0021D2
:1017B0004FF4001000F0F4FB08E00121880500F070
:1017C000EFFB00214FF4800000F0EAFB10BD0000A9
:1017D0000054004008B50121082000F0F1FBC020B2
:1017E000ADF8000003208DF802001C208DF80300E6
:1017F00069460248FFF723FF08BD0000000C0140C6
:1018000021B1028842F48072028004E002884FF61F
:10181000FF631A400280704721B1028842F40072CF
:10182000028004E002884FF6FF531A40028070479E
:101830000CB50246002000230193009300920B0F89
:10184000019321F07F41019B1BB1009B1433009356
:1018500003E0090C009B18330093009B1B680B40AE
:101860000BB1012000E000200CBD00002DE9F04389
:1018700085B004460D460026B1460427DFF8CC802B
:10188000A6884FF6C0700640684600F0B9FBDDF848
:1018900008802F48B8FBF0F01FFA80F946EA0906E5
:1018A000A68020884FF6FE71084020800026294936
:1018B000286888420CD828684000B8FBF0F087B24E
:1018C000042F00DA04273E4309F10100208427E0B9
:1018D000E8884BF6FF71884206D1286800EB40008B
:1018E000B8FBF0F087B209E0286800EBC00101EB1B
:1018F0000010B8FBF0F087B247F48047C7F30B0045
:1019000008B947F0010747F4004006434FF49670CA
:1019100009FB00F04FF47A7190FBF1F0401C208439
:10192000A683208840F00100208026884FF6F530FD
:101930000640A8886989084306432680A889298922
:101940000843208105B0BDE8F083000000127A0052
:1019500040420F00A08601001FB50121480500F09C
:101960000FFB0F48FFF71AFF0020ADF804004BF6FD
:10197000FF70ADF806000A20ADF808004FF4806053
:10198000ADF80A000001ADF80C0006480090694669
:101990000348FFF76BFF01210148FFF7F2FE1FBD6F
:1019A00000540040801A060012B141F0010102E02B
:1019B0004FF6FE73194001827047018270470000A4
:1019C00070B504460D4600BF4FF400311C48FFF7C8
:1019D0002FFF0028F8D101211948FFF711FF00BFA0
:1019E00018491748FFF7B8FE0028F9D000227821DF
:1019F0001348FFF7D9FF00BF13491148FFF7ACFEAA
:101A00000028F9D021460E48FFF7D7FF00BF0E4946
:101A1000891C0B48FFF7A0FE0028F8D0294608488B
:101A2000FFF7CBFF00BF0849891C0548FFF794FE6C
:101A30000028F8D001210248FFF7EEFE70BD00003B
:101A400000540040010003008200070000BFFEE7D1
:101A50007047000070B5002100230F22C47804B342
:101A6000154C246804F4E064C4F5E064210AC1F173
:101A70000403CA40447804FA03F1847814402143F3
:101A800009010E4C0678A155047804F01F050124C5
:101A9000AC4005786D11AD0005F1E025C5F80041B9
:101AA00009E0047804F01F050124AC40044D0678D9
:101AB000761145F8264070BD0CED00E000E400E032
:101AC00080E100E002490143024A116070470000D2
:101AD0000000FA050CED00E0F0B5144600267F2862
:101AE00001DC3F2900DDF0BD0B46CF1701EB577736
:101AF000C7F3C702CF1701EB5777FF10A1EBC7075A
:101B0000FDB20123AB40DEB24CB10A4B03EBC21372
:101B10001B5C3343074F07EBC2173B5408E0054BF0
:101B200003EBC2131B5CB343024F07EBC2173B54DA
:101B300000BFD8E7C430002010B5FFF74BFEFFF719
:101B40000BFFAE2000F071FD202000F06EFD0020A4
:101B500000F06BFDB02000F068FDC82000F065FDCE
:101B6000002000F062FD102000F05FFD402000F03A
:101B70005CFD812000F059FDFF2000F056FDA12002
:101B800000F053FDA62000F050FDA82000F04DFD10
:101B90003F2000F04AFDA42000F047FDD32000F0D4
:101BA00044FD002000F041FDD52000F03EFDF02076
:101BB00000F03BFDD92000F038FD222000F035FD7B
:101BC000DA2000F032FD122000F02FFDDB2000F0C3
:101BD0002CFD202000F029FD8D2000F026FD142092
:101BE00000F023FDAF2000F020FD00F001F810BD53
:101BF00000200CE0002106E00022064B03EBC0139E
:101C00005A544A1CD1B28029F6DB421CD0B20828B3
:101C1000F0DB7047C430002070B50024002500BF01
:101C20004FF400312548FFF703FE0028F8D10121C9
:101C30002248FFF7E5FD00BF21492048FFF78CFD52
:101C40000028F9D0002278211C48FFF7ADFE00BF24
:101C50001C491A48FFF780FD0028F9D04021174899
:101C6000FFF7ABFE00BF1749891C1448FFF774FD4E
:101C70000028F8D0002416E0002510E0124800EB00
:101C8000C410415D0D48FFF798FE00BF0D49891C47
:101C90000A48FFF761FD0028F8D0681CC5B2802D06
:101CA000ECDB601CC4B2082CE6DB01210348FFF723
:101CB000B3FD00200549087070BD000000540040CD
:101CC0000100030082000700C4300020A82F00207C
:101CD0002DE9F84F80460F4616461C46BA46204668
:101CE000E31704EB5373DB1021464FEAE47C04EB6B
:101CF0005C7C4FEAEC0CA4EBCC0CBCF1000F02D0E6
:101D00004FF0010C01E04FF0000C6344224604EB5D
:101D1000D27C4FEA6C0C03FB0CF303F0FF0BA6F133
:101D20002000C6B2082C01D14FF0050B00254EE073
:101D30000C2C07D106EB4600274901EB8000405DE3
:101D4000009013E0102C05D1244800EB0610405DF4
:101D500000900BE0182C07D106EBC600204901EBE0
:101D60008000405D009001E0BDE8F88F4FF0000971
:101D700027E0009800F0800028B1394640460A9AD2
:101D8000FFF7AAFE09E00A9808B9012000E0002048
:101D9000024639464046FFF79FFE00984006000E77
:101DA0000090781CC7B2A7EB0A00A04205D15746A5
:101DB00008F1010000F0FF0806E009F1010000F061
:101DC000FF09B9F1080FD4DB00BF681CC5B25D453F
:101DD000AEDB00BFC8E70000E61700205A1C002059
:101DE0004A2200202DE9F04F9FB081468A461646D0
:101DF0009846DDF8A0B0002400274FF07E51304611
:101E000000F0FAFF019001F0B9F80490049801F095
:101E1000D1F83146019001F0C5F9029000BF05E00C
:101E20001F49029801F0F2F80290641C4445F7D370
:101E3000029801F0A3F80390049800F06BFD0546AA
:101E4000002404E015F8010B12A90855641C322C7B
:101E5000F8D3039800F05EFD0546002404E015F871
:101E6000010B05A90855641C322CF8D300E07F1C37
:101E700012A8C05D0028FAD12E2012A9C85505A9C4
:101E800012A800F06FFD054629985B462A46514688
:101E90000090484600F006F81FB0BDE8F08F000043
:101EA000000020412DE9F84106460F4615461C4624
:101EB000DDF81C80082C24D01FE004EBD4714910FD
:101EC000C1F18101B14202DA00263819C7B2C4F16A
:101ED0004100B84202DA002006460746CDF80080ED
:101EE0002A78234639463046FFF7F2FE204604EBB7
:101EF000D07106EB6101CEB26D1C28780028DCD1D0
:101F00001FE01BE004EBD4714910C1F18101B14223
:101F100002DA00263819C7B2C4F14100B84202DA29
:101F2000002006460746CDF800802A782346394629
:101F30003046FFF7CDFE701DC6B26D1C2878002814
:101F4000E0D1BDE8F881704701460020034A50689F
:101F500020F44040084350607047000000100240E9
:101F600029B1064A52690243044B5A6104E0034A0C
:101F700052698243014B5A617047000000100240D1
:101F800029B1064AD2690243044BDA6104E0034AEC
:101F9000D2698243014BDA617047000000100240B1
:101FA00029B1064A12690243044B1A6104E0034A4C
:101FB00012698243014B1A61704700000010024011
:101FC00029B1064A92690243044B9A6104E0034A2C
:101FD00092698243014B9A617047000000100240F1
:101FE00029B1064AD2680243044BDA6004E0034A8E
:101FF000D2688243014BDA60704700000010024053
:1020000030B500210022002400232D4D6D6805F01D
:102010000C0121B1042905D0082923D105E0294D5F
:10202000056022E0274D05601FE0254D6D6805F431
:102030007012234D6D6805F48034022505EB924241
:102040001CB9214D554305600BE01D4D6D6805F42D
:1020500000351DB11C4D5543056002E0194D554337
:10206000056002E0174D056000BF00BF144D6D68AC
:1020700005F0F0010909154D6B5C0568DD40456010
:102080000F4D6D6805F4E061090A104D6B5C456801
:10209000DD4085600A4D6D6805F46051C90A0B4D3D
:1020A0006B5C4568DD40C560054D6D6805F44041D9
:1020B000890B074D6B5CC568B5FBF3F5056130BD59
:1020C0000010024000127A0000093D00D2170020E3
:1020D000E2170020704710B500F002F810BD0000B4
:1020E0000CB50020019000903348006840F4803027
:1020F0003149086000BF3048006800F400300090AB
:102100000198401C0190009818B90198B0F5A06F93
:10211000F1D12948006800F4003010B1012000908E
:1021200001E0002000900098012843D12348006876
:1021300040F01000214908600846006820F00300C4
:1021400008600846006840F0020008601A484068CD
:10215000194948600846406848600846406840F4AD
:10216000806048600846406820F47C10486008465B
:10217000406840F4E81048600846006840F080700D
:10218000086000BF0C48006800F000700028F9D01B
:102190000948406820F00300074948600846406845
:1021A00040F00200486000BF0348406800F00C00A7
:1021B0000828F9D10CBD00000010024000200240A8
:1021C0007047000010B51348006840F00100114945
:1021D000086008464068104908400E4948600846B3
:1021E00000680E4908400B4908600846006820F462
:1021F000802008600846406820F4FE0048604FF4E4
:102200001F008860FFF767FF4FF000600449086017
:1022100010BD0000001002400000FFF8FFFFF6FEB6
:1022200008ED00E02DE9FC410121880700F03FF8AE
:10223000B8B10121880700F02BF80B49486800F07D
:102240004DFD04460D460849086800F047FD064666
:1022500032460B4605A0CDE90045FDF7E7FFFFF745
:10226000DBFCBDE8FC810000C01700200A785F7627
:102270006F6C746167652069732025662C20795F17
:10228000766F6C746167652069732025660A0D009E
:10229000CA430282704721B1028842F001020280E3
:1022A00004E002884FF6FE731A400280704730B592
:1022B0000246002000230024158A05EA01039589BF
:1022C00005EA010413B10CB1012000E0002030BD8B
:1022D0001AB183890B43838102E083898B43838115
:1022E00070477FB505460C4601210846FFF748FEBA
:1022F000ADF80850ADF804400020ADF80A00ADF884
:10230000060001A94FF0804000F01AF801221146A2
:102310009007FFF7DDFF1C208DF8000000208DF8EE
:10232000010002208DF8020001208DF803006846AC
:10233000FFF790FB01218807FFF7ADFF7FBD00008D
:10234000002202881D4B98420ED01D4B98420BD0A4
:10235000B0F1804F08D01B4B984205D01A4B9842E1
:1023600002D01A4B984204D14FF68F731A404B8813
:102370001A43174B984207D0164B984204D04FF699
:10238000FF431A40CB881A4302808B8883850B88D1
:1023900003850A4B98420BD0094B984208D00E4B4C
:1023A000984205D00D4B984202D00D4B984201D176
:1023B0000B7A03860123838270470000002C0140C2
:1023C000003401400004004000080040000C0040C0
:1023D0000010004000140040004001400044014053
:1023E0000048014010B540F225511D4800F057F853
:1023F00010B31B4800F00EF9C4B21A48008800F46C
:102400000040C8B91748008800F4804060B10A2C29
:1024100003D000201349088020E01248008840F4CF
:1024200000401049088019E00D2C06D10D480088A5
:1024300040F480400B49088010E00A480088C0F34F
:102440000D0009490C5407480088401C05490880C4
:1024500008460088C72801DD0020088010BD000064
:1024600000440040D0170020AC2F002021B1828909
:1024700042F40052828104E082894DF6FF731A40D3
:102480008281704702460020B1F5007F00D100BF75
:1024900013880B400BB1012000E00020704770B59D
:1024A0000246002400230025002040F66A16B142AF
:1024B00000D100BFC1F3421501F01F03012606FA47
:1024C00003F3012D02D19689334006E0022D02D19B
:1024D000168A334001E0968A33400C12012606FA30
:1024E00004F41688344013B10CB1012000E0002040
:1024F00070BDF0B50346002400260025002040F6FC
:102500006A17B94200D100BF1846C1F3421401F066
:102510001F06012707FA06F5012C01D10C3004E053
:10252000022C01D1103000E014301AB107682F439B
:10253000076002E00768AF430760F0BD2DE9F04790
:1025400086B005460E460024A24600BFA1460027DD
:10255000B08900B100BF2F462C8A4CF6FF700440B2
:10256000F08804432C82AC894EF6F3100440B08806
:1025700031890843718908430443AC81AC8A4FF622
:10258000FF400440B0890443AC8201A8FFF738FD46
:102590001F48874202D1DDF810A001E0DDF80CA051
:1025A000A88900F4004040B10AEBCA0000EB0A1011
:1025B00031684900B0FBF1F807E00AEBCA0000EB14
:1025C0000A1031688900B0FBF1F86420B8FBF0F024
:1025D00004012009642101FB1089A88900F400404E
:1025E00040B1322000EBC900B0FBF1F000F0070071
:1025F000044308E0322000EB09106421B0FBF1F045
:1026000000F00F0004432C8106B0BDE8F087000005
:102610000038014001468888C0F308007047C1F3C4
:1026200008028280704700BFFEE710B504462146CD
:102630000020FFF7C5F910BD490050EAC12018BFBE
:1026400004204A0D18BF40F0010040F2FF72B2EBC7
:10265000515F08BF40F00200012808BF0520704705
:1026600000BF70470146114A12884A434FF0E023E9
:102670005A6100229A611A46126942F001021A61F7
:1026800000BF4FF0E022106900F001021AB100F41F
:102690008032002AF5D04FF0E022126922F00102C8
:1026A0004FF0E0231A6100229A617047CA17002098
:1026B00000BF054A128802F04002002AF9D0C2B2D7
:1026C000014B1B1D1A807047004400409AB0002542
:1026D0000024A24600265822544904A8FDF7E6FD2E
:1026E0004FF4A060FFF7EEF94FF4165000F05EF9DA
:1026F00000F0AEF8FEF798FEFFF71EFA41F61F4114
:1027000041F28730FFF7EDFDED208DF810003B2002
:102710008DF8110001208DF81200B1208DF8130002
:1027200000208DF85300AB208DF85400DD208DF88B
:1027300055008DF8560041208DF8570030208DF857
:10274000580054208DF8600030208DF86100502032
:102750008DF86200DE208DF8630065E00AF101006B
:102760001FFA80FA0A209AFBF0F100FB11A0A0B931
:10277000002610E004A8815D2D48FFF750FF00BF40
:1027800040212B48FFF77EFE0128F9D10A20FFF7F0
:1027900069FF701CC6B2542EECDB002424E04FF01D
:1027A0000009002506E0234800EBC50050F824008E
:1027B00081446D1C0A2DF6D3484600F013FC1E49D7
:1027C000019000F019FB834600F088FA4FF0663262
:1027D0001A4BCDE9020100F083F9074600F04EF9EB
:1027E000174941F82400641C022CD8D3012010237F
:1027F00014A20F2100900020FFF754FB01201021AC
:10280000CDE900100E480823202102680020FFF7C0
:10281000E9FA01201021CDE90010094808233121EF
:1028200042680020FFF7DEFA98E700003C3300081A
:1028300000440040743000200000204766660A40D3
:10284000C01700204E6F772053706565643A000012
:1028500000B587B001210420FFF7B2FB0121480237
:10286000FFF7AEFB4FF40040FFF76EFB2748FEF783
:10287000C9FC0320ADF8180000208DF81B0006A944
:102880002348FEF7DCFE0020019001208DF80800AF
:102890008DF80900002004904FF46020039002207E
:1028A0008DF8140001A91948FEF7EEFC4FF44040E2
:1028B000FFF74AFB0723012200211448FEF70CFD15
:1028C0000723022201211148FEF706FD01210F48CE
:1028D000FEF78CFC01210D48FEF77DFC0B48FEF74E
:1028E00057FD00BF0948FEF7C5FC0028FAD107488C
:1028F000FEF75EFD00BF0548FEF7B2FC0028FAD1E6
:1029000001210248FEF749FD07B000BD0024014047
:102910000008014070B5044600250026261E00DA96
:10292000644200BF0A2094FBF0F100FB11403030FC
:10293000C2B228466D1C0A490A540A2094FBF0F4DE
:10294000002CEFDC002E03DA2D2228466D1C0A54E1
:10295000002003494855084600F015F870BD0000F6
:10296000C43400200246104600E0521C1378002BAD
:10297000FBD103E011F8013B02F8013B0B78002B7F
:10298000F8D11370704710B50246014600E0491CAB
:102990000C78002CFBD1491E05E013780C7802F866
:1029A000014B01F801399142F7D810BD10B586B03E
:1029B000044601210420FFF703FB01214804FFF72F
:1029C000DFFA0420ADF8140003208DF8160018205B
:1029D0008DF8170005A91C48FEF731FE0820ADF858
:1029E000140004208DF8170005A91748FEF727FEEC
:1029F00026208DF8000003208DF801008DF80200DC
:102A000001208DF803006846FFF724F801940020A8
:102A1000ADF80800ADF80A00ADF80C00ADF81000F4
:102A20000C20ADF80E0001A90848FFF787FD012230
:102A300040F225510548FFF75CFD01210348FFF7EF
:102A400015FD06B010BD0000000801400044004024
:102A500010B500290AD00878002807D00548784426
:102A6000FDF7BEFF002801D0002010BD02487844C9
:102A700010BD0000560900004E09000021F0004280
:102A8000A2F16052B2F5801F01F0004328BFD2F1DD
:102A90007F6C0BD95FEA001C43EAC20242EB507024
:102AA00018BF704728BF20F001007047B2F5801FA3
:102AB000BCBF184670474FEA410C1CF5001F02D2FC
:102AC000084600F06ABB70B500F0B4F80000008959
:102AD000FFF7F6BF4FF00040A0F580007047000000
:102AE000DFF848C170B51CEA111E1EBF1CEA1315A1
:102AF0009EEA0C0F95EA0C0F00F06F8081EA030448
:102B000023EA4C134EEAD47E21EA4C1141F48011A1
:102B100043F48013AE44A1FB024CA0FB0365AEF16D
:102B20007F7E361955EB0C05A1FB034C4CF10003DD
:102B3000A0FB021C16EB0C06654153F10003094291
:102B400018BF46F0010613F4007F0BD14FEA0331A2
:102B50004FEA0530340341EA155140EA16506FF050
:102B600003020AE04FEAC3214FEAC520F40241EA1A
:102B7000555140EA56506FF0020202EB2E4201EB33
:102B8000025585EACE710AD05FEA440C18BF24F0E2
:102B9000004450F1000041F1000120EAD47040F2FD
:102BA000FE7C624500D270BDA84214BF4FF0804445
:102BB0004FF04044002E08BF0024BEF1806FA8BF34
:102BC000A1F1C041BDE8704080F282804FF000006A
:102BD00001F1C04101F0004170479EEA0C0F0CEA80
:102BE000131518BF95EA0C0F06D04FF0000081EACC
:102BF000030E0EF0004170BD00F01CF88900013E8C
:102C000000F007B800F009B84FEA430C5FEA5C5CDB
:102C100008D081EA030100F05BB84FEA410C5FEA9B
:102C20005C5CF6D14FF00000014970470000FF07DF
:102C30000000F87F0EF1020E2EF0030E5EF8046B1A
:102C4000364205D4012A43EB030515F5001F12D8BF
:102C5000012841EB010C1CF5001F0CD80ED14FEAE6
:102C6000D17C15F5001F0CEB4C0C0CF1020C08BFCD
:102C70004CEBD37C04E04FF0080C01E04FEAD37C2E
:102C80000CEB4C0526FA05F606F00706B6F1040C27
:102C900006D20EEB860CBDE870404CF0010C60478C
:102CA000DFE80CF0090B02024FF000414FF000008A
:102CB000A1F5002170BD19461046012851EB010411
:102CC00018BFD4F5001484BF002001F0004170BD8E
:102CD0000808A0F500114FEA3101704743004FEAA0
:102CE000D30C4FEA3C0C43401FBF40070CF160512E
:102CF00013F0FE4F70471CF0006F03D100200CF062
:102D0000004170470CF0004343EA507010B540EAB0
:102D1000CC0000F0FCF900BF000000924FEA000177
:102D2000FFF7D6BF4FF000414FF00000A1F50021A2
:102D30007047000090EA010F48BF81F0004100F1A8
:102D40004282421A3CBF801A89184FEAD0524FF093
:102D50007F4C1CEA410FA2EBD15318BF9CEA026FD3
:102D600000F03B804FF0004C4CEA00204CEA01217F
:102D700021FA03FC10EB0C0C1ED202F1FF325FEAC9
:102D80001C2040EBC25038BF70471CF07F0F4FEA49
:102D9000400C18BFBCF17F4F38BF7047C3F1200310
:102DA000994008BF20F00100BCF17F4F38BF704749
:102DB000A0F1C04000F0F1B94FEA3C00000A40EB3E
:102DC000C25028BF1CF0FF0F4FEA400CE6D018BFDE
:102DD000BCF17F4F38BF7047EAE79CEA026F05D02D
:102DE00010EA5C0F08BF00F00040704710B500F01B
:102DF0008EF900BF64FBBE3E4FF47F0C1CEAD0127C
:102E00001EBF1CEAD11392EA0C0F93EA0C0F00F0DC
:102E1000858090EA010F48BF42F4807240F4000CB4
:102E200041F400002CF07F4120F07F4000B581424A
:102E3000A2EB03020FF2081CACEB504EC0F10000F5
:102E40009EF800E04FEA4E0E00FB0EFC38BF490032
:102E50004FEA2C1C02F5FA020CFB0EF34FEACE1ED1
:102E60004FEA112C4FEAC1210EEB635E42EB224286
:102E70000EFB0CFC4FEA1C5300FB03114FEA112C14
:102E80004FEA01310EFB0CFC4FEADC4C00FB0C114D
:102E9000C14228BF09184CEB03335DF804EB10EB7B
:102EA000410143EBC250B2F57C0F38BF704729D5C2
:102EB00012F0F00F1CBF00F1C04000F0004070475E
:102EC000008182838485868788898B8C8D8E8F9103
:102ED0009293959697999A9C9D9FA0A2A3A5A7A827
:102EE000AAACAEB0B2B3B5B7B9BCBEC0C2C5C7C953
:102EF000CCCED1D4D7D9DCDFE2E6E9ECF0F3F7FAB7
:102F0000FE0000004FEA400C0CF1807CBCF17E4FCB
:102F100028BF7047B0F1C04000F03FB990EA010F00
:102F20000CEAD11348BF42F48072624538BF634552
:102F300007D213F47F0F16D080EA010000F00040A2
:102F4000704710B500F0E3F8097EFC3E00F005B8CC
:102F500080EA010000F00040704780EA010000F0C4
:102F6000004000F01AB912F47F0F04BF0248704706
:102F700080EA010000F011B90000C07F41000B0E93
:102F8000D3F19E0208D950F400034FEA032323FA39
:102F900002F048BF4042704710B500F0B8F800BFDB
:102FA00049922480002070476FF0004282EA20009E
:102FB0007047000010F0004148BF4042B0FA80F373
:102FC00010FA03F2C3F19D030BD051EAC35101EB98
:102FD0001220530638BF704700F1010008BF20F0EF
:102FE00001007047B0FA80F310FA03F2C3F19D03B9
:102FF0000AD0D90501EB1220530638BF704700F103
:10300000010008BF20F00100704700004FF47F0C62
:103010001CEAD0121EBF1CEAD11392EA0C0F93EAED
:103020000C0F00F0478090EA010F48BF42F4807215
:103030004FF0004C4CEA00204CEA012102EB030265
:10304000A0FB0113A2F50002002918BF43F0010301
:103050005B0028BF4FEA330342EB22425FEA132CA6
:103060004CEBC2502EBFBCEB436FB2F57C0F7047E8
:103070004FEA036CBCF1004F08BF20F00100B2F52D
:103080007C0F38BF70470BD582F0FF0212F5803FEE
:10309000C8BF704700F1C040D8BF00F00040704783
:1030A00000F5000C5FEA4C0C48BF7047B0F1C0401F
:1030B00000F073B890EA010F0CEAD11348BF42F454
:1030C0008072624538BF634504D280EA010000F097
:1030D0000040704710B500F01AF800BF8900013EAB
:1030E00000F007B800F009B85FEA410C5FEA1C6C19
:1030F00008D080EA010000F050B85FEA400C5FEAB7
:103100001C6CF6D14FF00040A0F5800070470EF126
:10311000020E2EF0030E5EF8044B244204D44FEA54
:103120004102B2F17F4F11D84FEA4003B3F17F4F14
:103130000CD80ED14FEAD07CB2F17F4F0CEB4C0C87
:103140000CF1020C08BF4CEBD17C04E04FF0080CF2
:1031500001E04FEAD17C0CEB4C0324FA03F404F0B9
:103160000704B4F1040C06D20EEB840CBDE8104049
:103170004CF0010C6047DFE80CF0070802024FF04A
:103180000040A0F5800010BD0846420018BFD2F1F3
:10319000807288BF00F0004010BDFF2141EAD0508E
:1031A000C005704780F0004090EA010F7FF5C9AD7F
:1031B00081F0004100F007B890EA010F48BF81F0AC
:1031C00000413FF5BEAD421A04D882F00042A0EBA8
:1031D000020011444FEAD0524FF07F4C1CEA410FDD
:1031E000A2EBD15318BF9CEA026F4AD04FF0004CBB
:1031F0004CEA00204CEA012121FA03FCB0EB0C0C54
:103200000FD412F0FE0F36D05FEA4C001DD500122D
:1032100040EBC25038BF70471CF03F0F18BF7047DB
:103220000BE0A2F101025FEA1C2040EBC25038BF64
:1032300070471CF07F0F18BF7047C3F120039940FF
:1032400014BF401E20F00100704780084FEA12238F
:1032500008BF7047B0FA80FCA2EB0C02CCF1280C3E
:1032600060FA0CF093EA122F04BF00EBC2507047D3
:103270004FEAC3707047130A5FEADC1008BF70475B
:10328000F6E79CEA026F04D010EA5C0F08BF00204A
:10329000704710B5FFF73BFF40DFF63E81F000407E
:1032A0007047FDF710B9000002400000000000A0C8
:1032B0000000000005400000000000C80000000001
:1032C0000C4000000000409C00000000194000007D
:1032D0000020BCBE0000000034400000BFC91B8EAF
:1032E00000000004B5400000504BCFD06607E2CF8D
:1032F000010000006C4100003E8251AADFEEA734BD
:1033000001000000D9420000DCB5A0E23A301F976E
:10331000FFFFFFFFB4450000FD25A0C8E9A3C14F92
:10332000FFFFFFFFFF3F00000000008000000000E3
:10333000FF3F000000000080000000002323232343
:10334000473330373435383737325031303339320C
:1033500039313835315330303048353031304941EA
:103360002D302E31323334354E2D302E3132333430
:1033700035453030303030303030442D30333552F8
:103380002323232323235533303232324223232372
:1033900023000000D033000800000020AC2F000004
:1033A0002801000848410008AC2F0020AC0B0000A9
:1033B0008C0100081C00000043000000F8FFFFFF24
:1033C0000C0000000E0000000F0000002E000000A6
:1033D000D20001633F400A3004300040043008004E
:1033E0000009000BC03D04D02A090018C024407F0A
:1033F000E0224031800000180024C01B000D803204
:1034000040018003801C4027401C80074000401082
:10341000006056100E1F80204040200000402020F9
:10342000401F3A2154120616120608100400000428
:1034300002233F8006112B913D720402319B719A49
:103440003008002001C00600389C215A2102415654
:10345000400510403FC028100A18C02140224024D7
:1034600040182512107E122402121BB4100A02000A
:103470000D0011003FC00118233C801610042440A9
:1034800023CC321F0C10043440030C1008300020F1
:103490000027C03806500400001B24213C10061CE5
:1034A0000022C0225641C28004000008929300040A
:1034B000B6120A6260072080404009000231BF1046
:1034C00005402080111C16043810062000234024DB
:1034D00008451A2006274029401FCD10094007C083
:1034E00039000F0001C41220CA617861E412309CD7
:1034F000211861F0412470052E4030C00C11BC121F
:10350000004221F2300622403380023035603136ED
:10351000613E118F13602001110E118C416C60050A
:103520000B0030C02215FB10094000C03FC03C001A
:103530000304523F6020040C402348B57451A85145
:10354000CC60092140214020E01FA09010042600FB
:1035500019CC29344B2440345230C221A81620F60D
:10356000216A233F8086123EF81607D612200412E5
:10357000077616078221781639EC223994211A151C
:10358000222A3849100800304021C026400C4AC089
:103590001D2B7FE007210A140570000C00C63906B8
:1035A00021F35B7FE03519D0312129648102B959BB
:1035B0002408028005400540038011EA38040440D5
:1035C0000410120050210C6306400C5A2468420378
:1035D000303972300404401FE82936340B02E0050C
:1035E00050055006500420801740044821305804EC
:1035F000044027A0218430040410279C25A4100631
:10360000014007000472458235801502320404111E
:103610003C115E920748419029ACB007041007F0B6
:103620000450A810045007F05C11306F02403C03B6
:103630001206D634040540042C1E047803320460BC
:10364000115E1580212A11062200801E0192031EA0
:10365000049A03258A2D64032178100606C0010010
:10366000067C316C40041004E024211A140405C0C7
:10367000062269F6477BE080258E5FFFF0B30340AA
:1036800004207BE082274000EB25E8031440000182
:10369000171FCCB95D30041E087E045260061596D3
:1036A00060062003FC1E200625C1480C0E181104DC
:1036B0003FFF10840C7800F0200B840F3800C00707
:1036C00078188400121813780F8410C411240E98EF
:1036D00000E40084000808006816E170380907E07B
:1036E0001818200440022858070220041818072A36
:1036F0001C04024002D20420050FF001800A11CF01
:10370000228002430FF80811911E014504BE0E37B6
:1037100005B280021A0083B20C6D1E062D052660CC
:103720005E2DFC03117C1404F00808FF3405040826
:1037300008072A8C07080408041FFCEB04340C0E4D
:103740000C10141024104411840E1410060C1810C0
:10375000041102400412880CC91008E0032004245C
:1037600008243436243C2004981084203004108827
:1037700010201160228830431888F92A1C6F33FC0E
:103780001308354010063811441084342F440E6558
:103790000315FC4009088C1044104408889039F443
:1037A000A30C03C4A004010106F02601332210C6B5
:1037B00025A0A1023D880511DA1C0504100220662F
:1037C000053D98052C0C0E001200100C106C10809A
:1037D0000F4203380EE00C1813E4142417C4082811
:1037E00007D03D1C063C03C41C403C0612E4A31554
:1037F00018231FFCEE300411040EC02130252E1DAD
:1038000031031F081CB203212041104540613013D1
:1038100017C41272181018050017C0104491402CDC
:1038200004441C78580331402684D42310844A2150
:1038300052615441FB1004000110024F1FFE21048D
:103840004150400703801464181C2E313641024257
:103850000C8010041F000004614E14061FFC0C04B1
:1038600003A61310186075EEA1B0157E22800246E3
:103870000FAE1618EE800824101C080A07F2C018B4
:103880000511C011300011A0170E1CDC15B011C2BB
:103890001D15053E183D0431B03D4406400510009D
:1038A0001FF890117A2EF8DD041C051E0011E0AF00
:1038B000062404701380FA10071FC0103C00E0A219
:1038C0001C05E0103C1FCC05200F1004180C16340A
:1038D00001C001C01634180C4648091C001304002E
:1038E000FC13042015BB10061C106410841068041F
:1038F000041018E31F7FFE17034E0230034E30649E
:10390000051660AE4E03400321028F7FFE48082D4E
:103910006E056E407205D20102811A6D31042006D7
:103920009801240144021E00060311D05809FC002E
:10393000880104010400C01DD50531103112911019
:103940003F1108360340040000F83E11403AC8AD6C
:10395000111C4A0F443522300500D60129022AC91C
:10396000C625A03300849511F625609C0601041934
:1039700004198003290230060101190119D23130DE
:103980004C0924004001B4010C01A50839306D9B9D
:1039900008118A12FC9C42000622000CD16011A082
:1039A0005204C02EF84B0300051301FF0085E012FE
:1039B000051A32010A21A221544D6C0816CC20416F
:1039C00002669851320754510E4AF88E1301087A54
:1039D00031362E0107071F10017404111E1C06F05A
:1039E000010C003056081230C043F001B220088CA0
:1039F00000740170018CD011901C04810171A50329
:103A0000421830151012842A16345411089D0304EC
:103A10006804003EFC023DE6056AFF1C291A7C048E
:103A20003EFC010F053E602B0549000331200001DB
:103A300010070F80380FFE380601101B193F15C400
:103A40001D77031D0A0392310C7E308D052009611C
:103A5000800067F807F98009710371127DD1045C59
:103A600017C0E003E0F00630080418081FFFFE044A
:103A70000E080787F0038104061C0501F000067B91
:103A8000032C090408060C7001F9C0EF051C073B64
:103A9000E000EC1807D9041F0C18930431251EE030
:103AA000CA051C1803F818041C0804170807E1D0FD
:103AB00003C0E00023B0003C08002079047210B17C
:103AC00011A82E3286050124FD54117F0001FFC08C
:103AD0000780F00C00181000042000711109110F6C
:103AE0001115111B1121112701113C300542000055
:103AF00066032E3C280412032732180C41155E423F
:103B00005E07A103214BC1120126B6021B08038DDB
:103B1000540C6238030116493206662A70ED320EE3
:103B20002F1EC08E08211385D41C097F8001FFE061
:103B300003807049071E042F0713000809110F1195
:103B400015111B99A242080300071003FFF807FF95
:103B5000F88E141601C03802C058040098040118E9
:103B6000040218040418061C18C2B80401E0F8196D
:103B700023C0F06615EC240C080806180803F41896
:103B800001E7F0EF7DF00B1DDE051F0D00E80B10C7
:103B90000A0061000081080301086F120F7216010C
:103BA00051716F1006E007FCD006426210039C09B9
:103BB0001838060FF00607C0700D31D81C06843087
:103BC0000208184F0741039008071810030FF00070
:103BD0002736031119EB500C0600F80607F80618F3
:103BE0000006E01259AF1C08E1E003F7F00634DBF1
:103BF0000529D023040C03600906161803F3F0010D
:103C0000C1B7500CF80003FC300306380402080367
:103C1000080518041003084C537038030919AC0840
:103C20000617301A00301C1F1C0814000022000068
:103C30004130081D87041D6B09740620040010081C
:103C40008F021B21038D0C0A15EF12103C1142113B
:103C500048214E32225A86081D1DDA0A1D26071CED
:103C60000F080038080F380808380810000C30E139
:103C7000093D3A0B65683A00403019020F10067092
:103C80008804C088048308047F8802C09003012050
:103C900000FE40AF2E1849051C0D3E0801C200076A
:103CA000020007E20000FF052F1FC85E052D61041A
:103CB00029763A0758491909171F45D4116C69AC80
:103CC00039B22C07100600200780830B8148811E23
:103CD000A80518020010D001136C5B043EFA3E01E7
:103CE000180BC1245200034A3E286D3A0691905D9C
:103CF0003C0335FE2C070203F00783F05B04B2029D
:103D000048AD1A042D5F0961A86DDC0E51B1D1C018
:103D1000CDCC0319991DA907410314080307FFFE21
:103D200007FFFC9E610365442F0C089B0418093EA5
:103D30000004C7800503C8D92C040400381C0FC137
:103D400060FD6604113491FC1C05800807FCFD0D24
:103D50002C05C00003F830031E78D20CB55C21247A
:103D60001D0E041D210F3EE02506421E9E1D590D0D
:103D700032F0D80D185C041D310705108C1DA70BFF
:103D80001D660961031D210611770F1001F0A404BF
:103D90001E88DA07130400D5040B113C03003E0112
:103DA000FFE6007F84B01D60065C0E0F00040BC0B0
:103DB0000610F003F03801E07D051D8C04BC0603FD
:103DC000F0300630CC033C080206180207F0079FCB
:103DD000061D27050610065025892D060345FB1DE7
:103DE0000F03440707FFE007FFF053ADF2051D8402
:103DF00003111B712D1D2703580707FE00041FE048
:103E0000E81B01E0431D130E716321211FFFC05AFF
:103E10000A1D930F1207052005FF80043F0C1604AE
:103E2000735E00610E4D91051C0707C07805F1C84F
:103E3000CA0F2D630E440663E80780F85372006CC6
:103E40001E80770D1C0508047C08B20A1DC1081EDF
:103E500000AD044FE008DA046E04C1051DDA111D3F
:103E6000260920060403E8040F2A100605F00807B7
:103E7000C02419BB0E1060EF061C043FFFFE17079D
:103E8000A103AD9E0619891D4B062DBC0325153EC9
:103E9000C050063E0E42087DA60AB13C114E0D16DA
:103EA000CA0432103D322006BE10E0060221010392
:103EB000716F21037E101A08EDF9071010F0001938
:103EC000F8001B1800220800260800240317100021
:103ED0006B6B1FF8FA45D71D69061C04F000180625
:103EE0000C3D670811036C083018001FF0000FED3F
:103EF000041DD00F110F5318301E11211D91082DD4
:103F0000390D9D9713412473381824500404101060
:103F10005AA19E414B30051230002296119990090A
:103F20003208001E10000E20D3213F1C0401FFF8B0
:103F3000740712064831034F0720190C5DCF0E306D
:103F40000C000E6E001FF30031B10020034C0C3149
:103F500091001F13002E1E00200EE4074D17042DA4
:103F6000410721D5615781FC7DFA1351AE1004063B
:103F70003FF8030D136E083D9C072E032F06210307
:103F8000AC0803063FFE063FFC6E08816C2F0188DB
:103F9000C8073C092FC00038F8002038B409A2082F
:103FA000277DEC040E100F4C08419F623FB10110B9
:103FB0000C4D3405A127021510D81565360FB076C3
:103FC00030D11D1C05AF300004081DFE06233FFF45
:103FD000031E105C146609F8061138F885D422090E
:103FE0002D321F3649F4791041931D191159433967
:103FF000DD8D410B1D7110100D78001E1800330867
:1040000000230800210310078800219800305DBAC2
:1040100060CB1DD31517FFF0F8896AA146250B7CEC
:1040200006F0007FF80083043A20D09A7F64417B39
:104030003E3CA1071E23CC0F1DBF111F7000911520
:104040006E3C700342201E1D580B1D9E042C04E084
:1040500000273306210F1E217A0522E00C9A201931
:10406000200F3838003E680027800003C8002CF875
:104070000F3A20E2816C140403003C4A800583005F
:1040800023EC69BF20008D0E3B38080D1C08F8009A
:1040900023E8002F88100831121D78060E1670E5EF
:1040A00008AC071FF7FC3000067D04DDD9038EFF46
:1040B0002B0DBD3E091D74041139113FADD008AD63
:1040C00039174DEE063240036E207A044D97050EE7
:1040D000170C47041D7F072004020304040C09FF8A
:1040E0000607080902040608E6170DFFE6170DFF8C
:1040F000E6170DFFE6170DFFE6170DFFE6170DFF9C
:10410000E6170DFFE6170DFFE6170DFFE6170DFF8B
:10411000E6170DFFE6170DFFE6170DFFE6170DFF7B
:10412000E6170DFFE6170DFFE6170DFFE6170DFF6B
:10413000E6170DFFE6170DFFE6170DFFE6170DFF5B
:08414000E6170DADE6170000C3
:04000005080001E905
:00000001FF
